:0200000038289E
:100008007E14803120007F08F200111C31288C1AE0
:1000180011280330F0007008A3008C1E1728043044
:10002800F0007008A3002308F000F101F035F10D8D
:100038000030700784008230713D85000008970009
:100048002308F000F101F035F10D0A307007840043
:100058008230713D850000089600FA01FA0A1110F5
:100068007208FF007E1009003928F801F901FA0129
:10007800A001A101A201A3017E10200043287A302B
:10008800210099008B1323008C01013022009D0070
:1000980021009513EC308C00EC3024008C00EC30FF
:1000A80020008C00EC3022008C0020009801EE30FB
:1000B80097006C3096001110210011140B178B1744
:1000C8002000A301FA018C141430142220008C1093
:1000D8001430142220000C141430142220000C10A8
:1000E80020008C1EF1280630A7003030A600A60B91
:1000F8007B28A70B7B28000074281530A700C63082
:10010800A600A60B8528A70B8528000020008C1ABE
:10011800F4281530A700C630A600A60B9128A70B17
:100128009128000020008C1E96288C1EF42813307D
:10013800A7002D30A600A60B9F28A70B9F282000FC
:100148008C1EA928A101A10AAA28A1018C1AAA28F3
:100158000830A7004430A600A60BB028A70BB0288B
:10016800000020000C168C1AF4282108013A031DFF
:10017800F428F701F7010F3077020318E1288C1EE5
:10018800C328EF30A6000032A60BC7280032003281
:1001980020008C1ACC28EF30A6000032A60BD128FC
:1001A80000320032103020008C060130A6002608EC
:1001B800F7070F307702031CC3280C121814782194
:1001C80020002008A6002608F80078212000200832
:1001D800A6002608F9001810FD2020008C1E812892
:1001E8002000A301EE3097006C30960014301422E2
:1001F80074287808D83A031D08297908273A031D76
:10020800082920008C140C107808603A031D132963
:1002180079089F3A031D132920008C100C147808C4
:10022800B83A031D1E297908473A031D1E292000E4
:100238008C100C107808A03A031D282979085F3A19
:10024800031D28290130AC21F808031D312979083C
:10025800FF3A031D31290230AC217808103A031DFA
:100268003B297908EF3A031D3B290330AC21780874
:10027800803A031D452979087F3A031D4529043032
:10028800AC217808203A031D4F297908DF3A031D6D
:100298004F290530AC217808B13A031D592979084E
:1002A8004E3A031D59290630AC217808113A031D2E
:1002B80063297908EE3A031D63290730AC217808D1
:1002C800213A031D6D297908DE3A0830031D6D298E
:1002D800AC217808813A031D080079087E3A031D8D
:1002E80008000930AC2108002000A0018030F3008C
:1002F8007308F600F401F5017508803AF3008030C0
:1003080073020830031974020318A9297A0803191B
:100318008A29FA0120008C1E95297608F3007308B3
:10032800A0047636F3007308F60010308C0601300E
:10033800F4070030F53D7508803AF3008030730209
:10034800083003197402031C8A2920000C120800C3
:100358002000A4008C100C10A50124082502031805
:10036800C2298C141430142220008C10143014224A
:100378000130F60076082000A507B1298C10080086
:1004000073340034CB340034D8340034EE34003448
:10041000DC34003460340034443400347334003449
:100420006C340034D8340034F5000130F50275081E
:10043000FF3A031908003430F400F130F300F30BF5
:0A0440001F2AF40B1F2A0032152AB0
:020000040001F9
:04000E00A4C9FFDEA4
:00000001FF
