:0200000038289E
:100008007E14803120007F08F200111C31288C1AE0
:1000180011280330F0007008A3008C1E1728043044
:10002800F0007008A3002308F000F101F035F10D8D
:100038000030700784008230713D85000008970009
:100048002308F000F101F035F10D0A307007840043
:100058008230713D850000089600FA01FA0A1110F5
:100068007208FF007E1009003928F801F901FA0129
:10007800A001A101A201A3017E10200043287A302B
:10008800210099008B1323008C01013022009D0070
:1000980021009513EC308C00EC3024008C00EC30FF
:1000A80020008C00EC3022008C0020009801EE30FB
:1000B80097006C3096001110210011140B178B1744
:1000C8002000A301FA018C141430142220008C1093
:1000D8001430142220000C141430142220000C10A8
:1000E80020008C1EF6280630A7003030A600A60B8C
:1000F8007B28A70B7B28000074281530A700C63082
:10010800A600A60B8528A70B8528000020008C1ABE
:10011800FA281530A700C630A600A60B9128A70B11
:100128009128000020008C1A9B288C1196288C1E80
:10013800FA281330A7002D30A600A60BA128A70B7C
:10014800A12820008C1EAB28A101A10AAC28A1017E
:100158008C1EB0288C15AC280830A7004430A600A7
:10016800A60BB428A70BB428000020000C168C1A84
:10017800FA282108013A031DFA28F701F701E228B5
:100188008C1AC8288C11C428EF30A6000032A60BA0
:10019800CA280032003220008C1ED4288C15CF28A3
:1001A800EF30A6000032A60BD628003200321030FD
:1001B80020008C060130A6002608F7070F307702CA
:1001C800031CC4280C1218147E2120002008A60045
:1001D8002608F8007E2120002008A6002608F9003D
:1001E8001810032120008C158C1E81282000A301E3
:1001F800EE3097006C30960014301422742878087A
:10020800D83A031D0E297908273A031D0E29200024
:100218008C140C107808603A031D192979089F3A44
:10022800031D192920008C100C147808B83A031DF6
:1002380024297908473A031D242920008C100C1022
:100248007808A03A031D2E2979085F3A031D2E2944
:100258000130B221F808031D37297908FF3A031D38
:1002680037290230B2217808103A031D412979084C
:10027800EF3A031D41290330B2217808803A031D63
:100288004B2979087F3A031D4B290430B22178089D
:10029800203A031D55297908DF3A031D55290530F1
:1002A800B2217808B13A031D5F2979084E3A031D37
:1002B8005F290630B2217808113A031D69297908A7
:1002C800EE3A031D69290730B2217808213A031D47
:1002D80073297908DE3A0830031D7329B22178089A
:1002E800813A031D080079087E3A031D0800093089
:1002F800B22108002000A0018030F3007308F60046
:10030800F401F5017508803AF30080307302083073
:10031800031974020318AF297A0803199029FA01FE
:1003280020008C1E9B297608F3007308A0047636FB
:10033800F3007308F60010308C060130F407003023
:10034800F53D7508803AF3008030730208300319D0
:100358007402031C902920000C1208002000A4003D
:100368008C100C10A501240825020318C8298C1428
:100378001430142220008C10143014220130F6009E
:0C03880076082000A507B7298C1008009B
:1004000073340034CB340034D8340034EE34003448
:10041000DC34003460340034443400347334003449
:100420006C340034D8340034F5000130F50275081E
:10043000FF3A031908003430F400F130F300F30BF5
:0A0440001F2AF40B1F2A0032152AB0
:020000040001F9
:04000E00A4C9FFDEA4
:00000001FF
