:040000000128F92FAB
:100F8600703021009900E03023008C0518302100D4
:100F96008C0020008C01F901FA0120000C148C143D
:100FA6000C158C150C168C160630F6001330F50051
:100FB600B130F400F40BDD2FF50BDD2FF60BDD2F32
:100FC600003220000C108C100C118C110C128C129B
:100FD6000630F6001330F500B130F400F40BF12FB3
:100FE600F50BF12FF60BF12F0032D02FF701F80198
:0A0FF600F901FA017E102000C32F5C
:020000040001F9
:04000E0064C2FCDAF2
:00000001FF
