:040000000128FD2FA7
:100C0000013400340A34003464340034E8340334EA
:100C100010342734763461346C34753465343A34A6
:100C200020342534643420340A340D340034700800
:100C30008600710887008108031908002000111E32
:100C40001E2E7008860071088700010823009A0094
:0A0C50000130F0070030F13D172ECF
:100CEE00F401F50171087502031D7F2E7008740260
:100CFE00031808001A30F300F830F200F20B852EBC
:100D0E00F30B852E00000130F4070030F53D792EEF
:100D1E00790878040319B62EFD01FD0AF91BA12EE0
:100D2E000130F835F90D890B982E0130FC007C0846
:100D3E00FD07952E79087B02031DA72E78087A02EF
:100D4E00031CAD2E7808FA027908FB3B0130F93608
:100D5E00F80C890BAE2E0130FD02031DA12E7B086F
:100D6E00F901F9077A08F801F8070800F501F6010C
:100D7E00710870040319EC2EF701F70AF11BD12E3E
:100D8E000130F035F10D890BC82E0130F4007408D6
:100D9E00F707C52E0130F535F60D890BD22E7108E9
:100DAE007302031DDC2E70087202031CE32E700802
:100DBE00F2027108F33B75140130F136F00C890B19
:100DCE00E42E0130F702031DD12E7608F101F10752
:100DDE007508F001F0070800723021009900230019
:100DEE008C01083021008C0020008C0122009D1700
:100DFE001D15243023009E0090309D0033309B0043
:100E0E00F430F0000130F100772630302000B200CF
:100E1E000030B3002000111E112F3330B200083005
:100E2E00B3003230A0000030A1000A30A20086309C
:100E3E00A3003308A501A5073208A401A407322791
:100E4E003230F0000030F10017266430F000003030
:100E5E00F1007726112F24302000A6002608AA00C4
:100E6E002308A7002208A600A20A0319A30A26082F
:100E7E008400270885000008A8002808B100B108E2
:100E8E000319F72F3108253A0319582F2008860029
:100E9E0021088700310881000130A0070030A13DF4
:100EAE00372FAB012308A7002208A600A20A0319B8
:100EBE00A30A26088400270885000008B100003A1E
:100ECE000319F72F643A0319702F0D3A0319702F77
:100EDE00372F2A0886008701403FAD00413FAE0004
:100EEE000230A6002608AA07AE1F862F0330A600E2
:100EFE002608AB04AD09AE09AD0A0319AE0AB1015D
:100F0E00B10A3108053A0319AB2F3108A600A70123
:100F1E00A635A70D0030260784008630273D8500B4
:100F2E00003FA800013FA90029082E02031DA12F92
:100F3E0028082D02031CAB2F0130A6002608B1078E
:100F4E003108053A031D8C2F2B0803390319B92FCD
:100F5E0020088600210887002D3081000130A0076F
:100F6E000030A13D3108A6002608AC00FF30A600D7
:100F7E002608AC072C08FF3A0319372F0A30F80061
:100F8E000030F9002C08A600A701A635A70D0030E9
:100F9E00260784008630273D8500003FF000013F84
:100FAE00F1002E08F301F3072D08F201F207BD261A
:100FBE007108FB01FB077008FA01FA078F26780803
:100FCE00303E2000A8002808B10020088600210825
:100FDE008700310881000130A0070030A13DBD2FF0
:100FEE002008860021088700810108007E1020005D
:020FFE00F32ED0
:020000040001F9
:04000E00C4CFFFDA82
:00000001FF
