:020000002F28A7
:100008007E14803120007F08F1000B1D2A283D3026
:1000180095000130F6070030F73D0B117708803A5C
:10002800F00080307002031D1B2828307602031C64
:100038002A28F601F70179087804031D28280130D9
:10004800F8000030F9002A28F801F90171082000A9
:10005800FF007E1009003028F601F701F801F901C8
:10006800A001A101A201A301A401A501A601A70164
:100078007E1020003F28F401F5017230210099001C
:10008800E03023008C050C3021008C0020008C010E
:1000980022009D171D15243023009E0090309D00DE
:1000A80033309B000630210095003D30200095003C
:1000B8000B11F601F7018B168B178230F300DD3038
:1000C800F200F20B6528F30B6528003220000C10B3
:1000D8000130F6070030F73D0C1970280C1D722806
:1000E8000C1D83288C160130F4070030F53DEF30E5
:1000F800F2000032F20B7D280032003284288C1284
:1001080020000C199528EF30F2000032F20B8928F4
:100118000032003220008C160130F4070030F53D23
:1001280096288C127708803AF20080307202031DFC
:100138009F280A307602031CAE287508803AF20020
:1001480080307202083003197402031CB2282000A0
:100158000C14B02820000C10F401F501790878047B
:10016800031DB92820008C106C2820008C146C28E2
:10020000003400340134003401340034003400344C
:020000040001F9
:04000E00C4CFFFDA82
:00000001FF
