:020000003028A6
:100008007E14803120007F08F1000B1D2B283D3025
:1000180095000130BD070030BE3D0B113E08803A07
:10002800F00080307002031D1B2828303D02031C9D
:100038002B282000BD01BE0140083F04031D2928CC
:100048000130BF000030C0002B28BF01C00171087B
:100058002000FF007E1009003128FA01FB01BD01D4
:10006800BE01BF01C0017E10200006292A302000F1
:10007800AC002C08B0002908AD002808AC00A80A7C
:100088000319A90A2C0884002D0885000008AE0071
:100098002E08B700B708031900293708253A0319AD
:1000A8006028260886002708870037088100013065
:1000B800A6070030A73D3F28B1012908AD00280850
:1000C800AC00A80A0319A90A2C0884002D08850089
:1000D8000008B700003A03190029643A0319782880
:1000E8000D3A031978283F28300886008701403FD9
:1000F800B300413FB4000230AC002C08B007B41F75
:100108008E280330AC002C08B104B309B409B30A33
:100118000319B40AB701B70A3708053A0319B3280F
:100128003708AC00AD01AC35AD0D00302C078400AC
:1001380082302D3D8500003FAE00013FAF002F0803
:100148003402031DA9282E083302031CB3280130EA
:10015800AC002C08B7073708053A031D9428310866
:1001680003390319C12826088600270887002D307F
:1001780081000130A6070030A73D3708AC002C08E5
:10018800B200FF30AC002C08B2073208FF3A03195E
:100198003F280A30A0000030A1003208AC00AD01B1
:1001A800AC35AD0D00302C07840082302D3D850024
:1001B800003FF200013FF3003408F501F50733086A
:1001C800F401F4076D2173082000A301A307720846
:1001D800A201A207A32120002008303EAE002E086D
:1001E800B7002608860027088700370881000130F5
:1001F800A6070030A73DC5282608860027088700DF
:1002080081010800723021009900E03023008C053C
:10021800093021008C0020008C0122009D171D153B
:10022800243023009E0090309D0033309B00063020
:10023800210095003D30200095000B11BD01BE0145
:100248008B168B17BF01C0010930BA001E30B900E8
:10025800EB30B800B80B2E29B90B2E29BA0B2E2972
:10026800000020008C140C110530BA000F30B900C2
:10027800F430B800B80B3E29B90B3E29BA0B3E2919
:100288000A302000BB000030BC003B30A600003024
:10029800A7000A30A8008230A9003C08AB01AB07D0
:1002A8003B08AA01AA073A203B30F2000030F300CD
:1002B800162220008C100C150530BA000F30B9003A
:1002C800F430B800B80B6629B90B6629BA0B662951
:1002D8003529F701F8017308720403199C29F901FB
:1002E800F90AF31B81290130F235F30D890B7829BE
:1002F8000130F6007608F90775290130F735F80D51
:10030800890B822973087502031D8C2972087402EF
:10031800031C93297208F4027308F53B7714013023
:10032800F336F20C890B94290130F902031D812957
:100338007808F301F3077708F201F20708002000B4
:10034800210820040319CB29A501A50AA11BB62958
:100358000130A035A10D890BAD290130A400240876
:10036800A507AA2921082302031DBC292008220267
:10037800031CC2292008A2022108A33B0130A13690
:10038800A00C890BC3290130A502031DB629230837
:0C039800A101A1072208A001A007080095
:10040000013400340A34003464340034E8340334F2
:1004100010342734763461346C34753465343A34AE
:100420002534643420340A340D34003472088600D4
:10043000730887008108031908002000111E1D2A77
:100440007208860073088700010823009A000130B3
:08045000F2070030F33D162A0B
:020000040001F9
:04000E00C4CFFFDA82
:00000001FF
