:020000003028A6
:100008007E14803120007F08F1000B1D2B283D3025
:1000180095000130CC070030CD3D0B114D08803ADA
:10002800F00080307002031D1B2828304C02031C8E
:100038002B282000CC01CD014F084E04031D292890
:100048000130CE000030CF002B28CE01CF0171083F
:100058002000FF007E1009003128CC01CD01CE011F
:10006800CF017E10200096292000A000A301A40142
:10007800A501A6012608803AF400803074020830F1
:100088000319250203187028720886008701F20AEE
:100098000108313A031D61280130F4000030F500F1
:1000A8002000250A5928F435F50D890B572823080F
:1000B8007404A30024087504A40001302000A507D7
:1000C8000030A63D2608803AF400803074020830DB
:1000D80003192502031C4828FF30200023062404A6
:1000E800031984282008F400F50124087506031D67
:1000F8007F282308740603198428F201F3010800F5
:10010800A301A401A501A6012608803AF4008030C5
:1001180074020830031925020318BA2872088600E9
:100128008701F20A0108313A031DAB280130F400B7
:100138000030F5002000250AA328F435F50D890BB9
:10014800A12823087404A30024087504A40001301E
:100158002000A5070030A63D2608803AF40080302C
:100168007402083003192502031C92282000A101FB
:10017800A201A501A6012608803AF4008030740285
:100188000830031925020318F12872088600870130
:10019800F20A0108303A031DE2280130F400003069
:1001A800F5002000250ADA28F435F50D890BD82842
:1001B80021087404A10022087504A200013020005F
:1001C800A5070030A63D2608803AF4008030740266
:1001D800083003192502031CC92820002208240618
:1001E800031DF828210823060319FD28F201F3014D
:1001F80008002408F301F3072308F201F2070800B6
:100208002000C100C201C3010030C7000030C60091
:100218000030C5000030C4000C182B290030C7007E
:100228000030C6000030C5000030C4000C182B296F
:100238001A30F800F80B1E29000001302000C4070E
:100248000030C53D0030C63D0030C73D1A2900309A
:100258004702031D392900304602031D39290130A0
:100268004502031D39292C304402031C8F29C8017B
:10027800C9010C183D290C1C3F290030C70000306B
:10028800C6000030C5000030C4000C1C5A291A30C2
:10029800F800F80B4D29000001302000C407003099
:1002A800C53D0030C63D0030C73D492900304702F2
:1002B800031D682900304602031D682900304502E5
:1002C800031D682932304402031C6C2931306D2922
:1002D8003030F8004808273E8600870178088100FA
:1002E8000130C8070030C93D183048064904031DCD
:1002F8003F29183048064904031D8F292730F80084
:100308007808F2004108382073082000C301C307A9
:100318007208C201C2074308F701F7074208F6014D
:10032800F607080072302100990023008C0109307B
:1003380021008C0020008C0122009D171D152430FF
:1003480023009E0090309D0033309B000630210032
:1003580095003D30200095000B11CC01CD018B1686
:100368008B17CE01CF01CB30FB00ED30FA004C30BB
:10037800F900F90BBD29FA0BBD29FB0BBD29003289
:100388002000111EC4290A30042177082000CB015F
:10039800CB077608CA01CA074B084A040319C429BF
:0803A8004A0823009A00C42951
:020000040001F9
:04000E0084FFFFDA92
:00000001FF
