:020000002F28A7
:100008007E14803120007F08F1000B1D2A283D3026
:1000180095000130F7070030F83D0B117808803A59
:10002800F00080307002031D1B2828307702031C63
:100038002A28F701F8017A087904031D28280130D5
:10004800F9000030FA002A28F901FA0171082000A5
:10005800FF007E1009003028F701F801F901FA01C4
:10006800FB01FC017E102000392872302100990024
:10007800E03023008C05093021008C0020008C0121
:1000880022009D171D15243023009E0090309D00EE
:1000980033309B000630210095003D30200095004C
:1000A8000B11F701F8018B168B17F901FA010330D0
:1000B800F4000830F3007830F200F20B6128F30BFB
:1000C8006128F40B612820008C161530F4004B30A1
:1000D800F300D130F200F20B6F28F30B6F28F40B0A
:1000E8006F2800000130F5070030F63D7608803AA9
:1000F800F20080307202031D83287C307502031CD5
:1001080089283030F5000030F60020008C121530B8
:10011800F4004B30F300D130F200F20B9128F30BCE
:0A0128009128F40B912800006728CD
:020000040001F9
:04000E00C4CFFFDA82
:00000001FF
