:020000003028A6
:100008007E14803120007F08F1000B1D2B283D3025
:1000180095000130CF070030D03D0B115008803AD1
:10002800F00080307002031D1B2828304F02031C8B
:100038002B282000CF01D00152085104031D292884
:100048000130D1000030D2002B28D101D201710833
:100058002000FF007E1009003128FA01FB01C701CA
:10006800C801C901CA01CB01CC01CD01CE01CF0124
:10007800D001D101D2017E1020008E292A30200023
:10008800AC002C08B0002908AD002808AC00A80A6C
:100098000319A90A2C0884002D0885000008AE0061
:1000A8002E08B700B708031908293708253A031995
:1000B800682826088600270887003708810001304D
:1000C800A6070030A73D4728B1012908AD00280838
:1000D800AC00A80A0319A90A2C0884002D08850079
:1000E8000008B700003A03190829643A0319802860
:1000F8000D3A031980284728300886008701403FB9
:10010800B300413FB4000230AC002C08B007B41F64
:1001180096280330AC002C08B104B309B409B30A1B
:100128000319B40AB701B70A3708053A0319BB28F7
:100138003708AC00AD01AC35AD0D00302C0784009C
:1001480083302D3D8500003FAE00013FAF002F08F2
:100158003402031DB1282E083302031CBB280130CA
:10016800AC002C08B7073708053A031D9C2831084E
:1001780003390319C92826088600270887002D3067
:1001880081000130A6070030A73D3708AC002C08D5
:10019800B200FF30AC002C08B2073208FF3A03194E
:1001A80047280A30A0000030A1003208AC00AD0199
:1001B800AC35AD0D00302C07840083302D3D850013
:1001C800003FF200013FF3003408F501F50733085A
:1001D800F401F407F92173082000A301A3077208AA
:1001E800A201A2072F2220002008303EAE002E08D0
:1001F800B7002608860027088700370881000130E5
:10020800A6070030A73DCD282608860027088700C6
:10021800810108002000BA01BB010030BF00003096
:10022800BE000030BD000030BC000C18342900307E
:10023800BF000030BE000030BD000030BC000C180C
:1002480034291A30F400F40B27290000013020006B
:10025800BC070030BD3D0030BE3D0030BF3D232906
:1002680000303F02031D422900303E02031D42298F
:1002780001303D02031D42292C303C02031C872912
:100288000C15C001C1010C1847290C1C4929003064
:10029800BF000030BE000030BD000030BC000C1CA8
:1002A80064291A30F400F40B5729000001302000AB
:1002B800BC070030BD3D0030BE3D0030BF3D532976
:1002C80000303F02031D722900303E02031D7229CF
:1002D80000303D02031D722932303C02031C76298E
:1002E800313077293030F4004008203E86008701FD
:1002F800740881000130C0070030C13D1830400645
:100308004104031D49293B08F301F3073A08F201A8
:10031800F2070800723021009900E03023008C05B4
:10032800093021008C0020008C0122009D171D152A
:10033800243023009E0090309D0033309B0006300F
:10034800210095003D30200095000B11CF01D00110
:100358008B168B17D101D2010930C4001E30C3009F
:10036800EB30C200C20BB629C30BB629C40BB629A1
:10037800000020008C140C1148300E217308200056
:10038800C601C6077208C501C5070530C4000F308D
:10039800C300F430C200C20BCF29C30BCF29C40B52
:1003A800CF2945302000A6000030A7000A30A80059
:1003B8008330A9004608AB01AB074508AA01AA0784
:1003C80042204530F2000030F300162320008C1044
:1003D8000530C4000F30C300F430C200C20BF2294C
:1003E800C30BF229C40BF229BD29F701F8017308E0
:1003F80072040319282AF901F90AF31B0D2A01309E
:10040800F235F30D890B042A0130F6007608F90756
:10041800012A0130F735F80D890B0E2A7308750289
:10042800031D182A72087402031C1F2A7208F4029A
:100438007308F53B77140130F336F20C890B202A48
:100448000130F902031D0D2A7808F301F307770834
:10045800F201F20708002000210820040319572A96
:10046800A501A50AA11B422A0130A035A10D890BBF
:10047800392A0130A4002408A507362A21082302B6
:10048800031D482A20082202031C4E2A2008A20223
:100498002108A33B0130A136A00C890B4F2A01305B
:1004A800A502031D422A2308A101A1072208A001D1
:0404B800A007080091
:10060000013400340A34003464340034E8340334F0
:1006100010342734763461346C34753465343A34AC
:100620002534643420340A340D34003472088600D2
:10063000730887008108031908002000111E1D2B74
:100640007208860073088700010823009A000130B1
:08065000F2070030F33D162B08
:020000040001F9
:04000E00C4CFFFDA82
:00000001FF
