:020000002F28A7
:100008007E14803120007F08F5000B1D2A283D3022
:1000180095000130F0070030F13D0B117108803A6E
:10002800F40080307402031D1B2828307002031C62
:100038002A28F001F10173087204031D28280130F1
:10004800F2000030F3002A28F201F30175082000BD
:10005800FF007E1009003028F001F101F201F301E0
:100068007E10200037286A302100990023008C0177
:10007800083021008C0020008C01063021009500FA
:100088003D30200095000B11F001F1018B168B1704
:10009800F201F30150280C107308720403194F2859
:0400A8000C145028BC
:020000040001F9
:04000E0084CFFFDEBE
:00000001FF
