:020000003028A6
:100008007E14803120007F08F1000B1D2B283D3025
:1000180095000130CF070030D03D0B115008803AD1
:10002800F00080307002031D1B2828304F02031C8B
:100038002B282000CF01D00152085104031D292884
:100048000130D1000030D2002B28D101D201710833
:100058002000FF007E1009003128F901FA01CF01C4
:10006800D001D101D2017E10200098292000A000E3
:10007800A301A401A501A6012608803AF400803056
:1000880074020830031925020318722872088600C2
:100098008701F20A0108313A031D63280130F40090
:1000A8000030F5002000250A5B28F435F50D890B92
:1000B800592823087404A30024087504A4000130F7
:1000C8002000A5070030A63D2608803AF4008030BD
:1000D8007402083003192502031C4A28FF30200047
:1000E80023062404031986282008F400F5012408AF
:1000F8007506031D81282308740603198628F20152
:10010800F3010800A301A401A501A6012608803A6D
:10011800F400803074020830031925020318BC2843
:10012800720886008701F20A0108313A031DAD28DA
:100138000130F4000030F5002000250AA528F43528
:10014800F50D890BA32823087404A300240875045B
:10015800A40001302000A5070030A63D2608803AFB
:10016800F40080307402083003192502031C942817
:100178002000A101A201A501A6012608803AF400E9
:10018800803074020830031925020318F328720816
:1001980086008701F20A0108303A031DE42801307D
:1001A800F4000030F5002000250ADC28F435F50DB0
:1001B800890BDA2821087404A10022087504A2001A
:1001C80001302000A5070030A63D2608803AF4003B
:1001D80080307402083003192502031CCB28200044
:1001E80022082406031DFA28210823060319FF28DC
:1001F800F201F30108002408F301F3072308F201D0
:10020800F20708002000C100C201C3010030C70086
:100218000030C6000030C5000030C4000C182D297D
:100228000030C7000030C6000030C5000030C400F0
:100238000C182D290630F800F80B20290000013091
:100248002000C4070030C53D0030C63D0030C73D22
:100258001C2900304702031D3B2900304602031DBC
:100268003B2901304502031D3B292C304402031C65
:100278009129C801C9010C183F290C1C41290030DB
:10028800C7000030C6000030C5000030C4000C1C98
:100298005C290630F800F80B4F29000001302000D7
:1002A800C4070030C53D0030C63D0030C73D4B296E
:1002B80000304702031D6A2900304602031D6A29DF
:1002C80000304502031D6A2932304402031C6E299E
:1002D80031306F293030F8004808273E8600870102
:1002E800780881000130C8070030C93D1830480639
:1002F8004904031D4129183048064904031D912962
:100308002730F8007808F20041083A2073082000E6
:10031800C301C3077208C201C2074308F701F70700
:100328004208F601F6070800723021009900230000
:100338008C01093021008C0020008C0122009D17BF
:100348001D15243023009E0090309D0033309B0003
:100358000630210095003D30200095000B11CF019B
:10036800D0018B168B17D101D2013330CC00BC30B1
:10037800CB001030CA00CA0BBF29CB0BBF29CC0B4E
:10038800BF292000111EC5298C150A3006217708BF
:100398002000CE01CE077608CD01CD070630CC006F
:1003A8001330CB00B130CA00CA0BD829CB0BD829DF
:1003B800CC0BD829003220004D0823009A002000D9
:1003C8008C110630CC001330CB00B130CA00CA0BF8
:0E03D800EB29CB0BEB29CC0BEB290032C5290E
:020000040001F9
:04000E0084FFFFDA92
:00000001FF
