:020000002F28A7
:100008007E14803120007F08F1000B1D2A283D3026
:1000180095000130F6070030F73D0B117708803A5C
:10002800F00080307002031D1B2828307602031C64
:100038002A28F601F70179087804031D28280130D9
:10004800F8000030F9002A28F801F90171082000A9
:10005800FF007E1009003028F601F701F801F901C8
:100068007E102000372872302100990023008C016F
:10007800083021008C0020008C0122009D171D15DE
:10008800243023009E0090309D0033309B000630C2
:10009800210095003D30200095000B11F601F70175
:1000A8008B168B17F801F9013330F400BC30F300DC
:1000B8001030F200F20B5E28F30B5E28F40B5E287A
:1000C8003030F2007208F5002000111E682875080B
:1000D80023009A000130F2007208F5077C3075029F
:1000E800031C7A283030F2007208F5000B30F40057
:1000F8002630F3006630F200F20B8028F30B8028DC
:08010800F40B80280032682886
:020000040001F9
:04000E0084CFFFDAC2
:00000001FF
