:020000002F28A7
:100008007E14803120007F08F5000B1D2A283D3022
:1000180095000130F0070030F13D0B117108803A6E
:10002800F40080307402031D1B2828307002031C62
:100038002A28F001F10173087204031D28280130F1
:10004800F2000030F3002A28F201F30175082000BD
:10005800FF007E1009003028F001F101F201F301E0
:10006800A001A101A201A301A401A501A601A70164
:100078007E1020003F28723021009900E0302300D4
:100088008C050C3021008C0020008C0122009D176B
:100098001D15243023009E0090309D0033309B00B6
:1000A8000630210095003D30200095000B11F0012D
:1000B800F1018B168B178230F700DD30F600F60B56
:1000C8006328F70B6328003220000C140C196A28E7
:1000D8000C1D6C280C1D79288C16EF30F6000032A8
:1000E800F60B7328003200327A288C1220000C1983
:1000F8008728EF30F6000032F60B7F2800320032F6
:1001080020008C1688288C1273087204031D8E2810
:080118008C1068288C14682883
:10020000003400340134003401340034003400344C
:020000040001F9
:04000E00C4CFFFDA82
:00000001FF
