:020000002F28A7
:100008007E14803120007F08F7000B1D2A283D3020
:1000180095000130F0070030F13D0B117108803A6E
:10002800F60080307602031D1B2828307002031C5E
:100038002A28F001F10173087204031D28280130F1
:10004800F2000030F3002A28F201F30177082000BB
:10005800FF007E1009003028F001F101F201F301E0
:10006800F401F5017E102000392872302100990032
:10007800E03023008C05093021008C0020008C0121
:1000880022009D171D15243023009E0090309D00EE
:1000980033309B000630210095003D30200095004C
:1000A8000B11F001F1018B168B17F201F3010330EC
:1000B800FA000830F9007830F800F80B6128F90BDD
:1000C8006128FA0B61282000111E67288C1503305F
:1000D800FA000830F9007830F800F80B7128F90BAD
:1000E8007128FA0B7128003023009A0020008C1127
:1000F8000330FA000830F9007830F800F80B82284D
:0A010800F90B8228FA0B8228672801
:0A020000613461346134613400346C
:020000040001F9
:04000E0084FFFFDA92
:00000001FF
