:02000000FE2FD1
:100CEA00703083168F009F011830850083128501AA
:100CFA000A3087267D088312C501C5077C08C4010E
:100D0A00C4077D2E8312BB00BC01BD010030C100A7
:100D1A000030C0000030BF000030BE000519B42EFC
:100D2A000030C1000030C0000030BF000030BE00FB
:100D3A000519B42E1A30A000A00BA12E0000013014
:100D4A008312BE07003003180130BF0700300318B2
:100D5A000130C007003003180130C1079D2E003052
:100D6A004102031DC22E00304002031DC22E013073
:100D7A003F02031DC22E2C303E02031C202FC2014B
:100D8A00C3010519C62E051DC82E0030C10000304A
:100D9A00C0000030BF000030BE00051DE92E1A3029
:100DAA00A000A00BD62E000001308312BE0700302F
:100DBA0003180130BF07003003180130C0070030A4
:100DCA0003180130C107D22E00304102031DF72E4D
:100DDA0000304002031DF72E00303F02031DF72E9C
:100DEA0032303E02031CFB2E3130FC2E3030A00084
:100DFA004208213E84002008831380000130C20784
:100E0A000318C30A0030C307183042064304031DFF
:100E1A00C82E183042064304031D202F2130A0009B
:100E2A002008F0003B08272771088312BD01BD077F
:100E3A007008BC01BC073D08FD01FD073C08FC0128
:100E4A00FC070800F500F801F901FA01FB017B082B
:100E5A00803AFF0080307F02031D352F08307A0266
:100E6A000318632F700884000130F0078313000809
:100E7A00313A031D522F7A0AF2000130F300003092
:100E8A00F4004A2F0310F30DF40DF20B472F7808E4
:100E9A007304F80079087404F9000130FA0703189A
:100EAA00FB0A0030FB077B08803AFF0080307F0294
:100EBA00031D612F08307A02031C372FFF30780692
:100ECA0079040319762F7508F200F301790873067D
:100EDA00031D712F780872060319762FF001F101AC
:100EEA000800F801F901FA01FB017B08803AFF00CA
:100EFA0080307F02031D832F08307A020318B12F36
:100F0A00700884000130F00783130008313A031D8A
:100F1A00A02F7A0AF2000130F3000030F400982F73
:100F2A000310F30DF40DF20B952F78087304F800F3
:100F3A0079087404F9000130FA070318FB0A003033
:100F4A00FB077B08803AFF0080307F02031DAF2F2A
:100F5A0008307A02031C852FF601F701FA01FB011A
:100F6A007B08803AFF0080307F02031DBE2F0830C5
:100F7A007A020318EC2F700884000130F0078313FB
:100F8A000008303A031DDB2F7A0AF2000130F30021
:100F9A000030F400D32F0310F30DF40DF20BD02F11
:100FAA0076087304F60077087404F7000130FA072C
:100FBA000318FB0A0030FB077B08803AFF008030E9
:100FCA007F02031DEA2F08307A02031CC02F77081C
:100FDA007906031DF22F760878060319F72FF00118
:100FEA00F10108007908F101F1077808F001F0072A
:060FFA0008008301752EC2
:02400E00FDFFB4
:00000001FF
